{
	"data": {
		"bytecode": {
			"linkReferences": {},
			"object": "608060405234801561001057600080fd5b5033600260006101000a81548173ffffffffffffffffffffffffffffffffffffffff021916908373ffffffffffffffffffffffffffffffffffffffff160217905550610de5806100616000396000f3fe608060405234801561001057600080fd5b50600436106100575760003560e01c80630c0dee701461005c5780636ec4f4bf1461008e5780638f0869cb146100ac578063de20637e146100c8578063f851a440146100f8575b600080fd5b61007660048036038101906100719190610476565b610116565b6040516100859392919061054c565b60405180910390f35b610096610250565b6040516100a39190610591565b60405180910390f35b6100c660048036038101906100c1919061070d565b610256565b005b6100e260048036038101906100dd91906107ac565b6103c8565b6040516100ef919061083e565b60405180910390f35b610100610406565b60405161010d919061089a565b60405180910390f35b6000602052806000526040600020600091509050806000018054610139906108e4565b80601f0160208091040260200160405190810160405280929190818152602001828054610165906108e4565b80156101b25780601f10610187576101008083540402835291602001916101b2565b820191906000526020600020905b81548152906001019060200180831161019557829003601f168201915b5050505050908060010180546101c7906108e4565b80601f01602080910402602001604051908101604052809291908181526020018280546101f3906108e4565b80156102405780601f1061021557610100808354040283529160200191610240565b820191906000526020600020905b81548152906001019060200180831161022357829003601f168201915b5050505050908060020154905083565b60015481565b600260009054906101000a900473ffffffffffffffffffffffffffffffffffffffff1673ffffffffffffffffffffffffffffffffffffffff163373ffffffffffffffffffffffffffffffffffffffff16146102e6576040517f08c379a00000000000000000000000000000000000000000000000000000000081526004016102dd90610987565b60405180910390fd5b6000806000868152602001908152602001600020600201541461033e576040517f08c379a0000000000000000000000000000000000000000000000000000000008152600401610335906109f3565b60405180910390fd5b600060405180606001604052808581526020018481526020018381525090508060008087815260200190815260200160002060008201518160000190816103859190610bbf565b50602082015181600101908161039b9190610bbf565b5060408201518160020155905050600160008154809291906103bc90610cc0565b91905055505050505050565b600080858585856040516020016103e29493929190610d65565b60405160208183030381529060405280519060200120905080915050949350505050565b600260009054906101000a900473ffffffffffffffffffffffffffffffffffffffff1681565b6000604051905090565b600080fd5b600080fd5b6000819050919050565b61045381610440565b811461045e57600080fd5b50565b6000813590506104708161044a565b92915050565b60006020828403121561048c5761048b610436565b5b600061049a84828501610461565b91505092915050565b600081519050919050565b600082825260208201905092915050565b60005b838110156104dd5780820151818401526020810190506104c2565b60008484015250505050565b6000601f19601f8301169050919050565b6000610505826104a3565b61050f81856104ae565b935061051f8185602086016104bf565b610528816104e9565b840191505092915050565b6000819050919050565b61054681610533565b82525050565b6000606082019050818103600083015261056681866104fa565b9050818103602083015261057a81856104fa565b9050610589604083018461053d565b949350505050565b60006020820190506105a6600083018461053d565b92915050565b600080fd5b600080fd5b7f4e487b7100000000000000000000000000000000000000000000000000000000600052604160045260246000fd5b6105ee826104e9565b810181811067ffffffffffffffff8211171561060d5761060c6105b6565b5b80604052505050565b600061062061042c565b905061062c82826105e5565b919050565b600067ffffffffffffffff82111561064c5761064b6105b6565b5b610655826104e9565b9050602081019050919050565b82818337600083830152505050565b600061068461067f84610631565b610616565b9050828152602081018484840111156106a05761069f6105b1565b5b6106ab848285610662565b509392505050565b600082601f8301126106c8576106c76105ac565b5b81356106d8848260208601610671565b91505092915050565b6106ea81610533565b81146106f557600080fd5b50565b600081359050610707816106e1565b92915050565b6000806000806080858703121561072757610726610436565b5b600061073587828801610461565b945050602085013567ffffffffffffffff8111156107565761075561043b565b5b610762878288016106b3565b935050604085013567ffffffffffffffff8111156107835761078261043b565b5b61078f878288016106b3565b92505060606107a0878288016106f8565b91505092959194509250565b600080600080608085870312156107c6576107c5610436565b5b60006107d4878288016106f8565b945050602085013567ffffffffffffffff8111156107f5576107f461043b565b5b610801878288016106b3565b9350506040610812878288016106f8565b9250506060610823878288016106f8565b91505092959194509250565b61083881610440565b82525050565b6000602082019050610853600083018461082f565b92915050565b600073ffffffffffffffffffffffffffffffffffffffff82169050919050565b600061088482610859565b9050919050565b61089481610879565b82525050565b60006020820190506108af600083018461088b565b92915050565b7f4e487b7100000000000000000000000000000000000000000000000000000000600052602260045260246000fd5b600060028204905060018216806108fc57607f821691505b60208210810361090f5761090e6108b5565b5b50919050565b7f48616e79612061646d696e2079616e67206461706174206d656d616e6767696c60008201527f2066756e67736920696e69000000000000000000000000000000000000000000602082015250565b6000610971602b836104ae565b915061097c82610915565b604082019050919050565b600060208201905081810360008301526109a081610964565b9050919050565b7f42756b752064656e67616e204953424e20696e69207375646168206164610000600082015250565b60006109dd601e836104ae565b91506109e8826109a7565b602082019050919050565b60006020820190508181036000830152610a0c816109d0565b9050919050565b60008190508160005260206000209050919050565b60006020601f8301049050919050565b600082821b905092915050565b600060088302610a757fffffffffffffffffffffffffffffffffffffffffffffffffffffffffffffffff82610a38565b610a7f8683610a38565b95508019841693508086168417925050509392505050565b6000819050919050565b6000610abc610ab7610ab284610533565b610a97565b610533565b9050919050565b6000819050919050565b610ad683610aa1565b610aea610ae282610ac3565b848454610a45565b825550505050565b600090565b610aff610af2565b610b0a818484610acd565b505050565b5b81811015610b2e57610b23600082610af7565b600181019050610b10565b5050565b601f821115610b7357610b4481610a13565b610b4d84610a28565b81016020851015610b5c578190505b610b70610b6885610a28565b830182610b0f565b50505b505050565b600082821c905092915050565b6000610b9660001984600802610b78565b1980831691505092915050565b6000610baf8383610b85565b9150826002028217905092915050565b610bc8826104a3565b67ffffffffffffffff811115610be157610be06105b6565b5b610beb82546108e4565b610bf6828285610b32565b600060209050601f831160018114610c295760008415610c17578287015190505b610c218582610ba3565b865550610c89565b601f198416610c3786610a13565b60005b82811015610c5f57848901518255600182019150602085019450602081019050610c3a565b86831015610c7c5784890151610c78601f891682610b85565b8355505b6001600288020188555050505b505050505050565b7f4e487b7100000000000000000000000000000000000000000000000000000000600052601160045260246000fd5b6000610ccb82610533565b91507fffffffffffffffffffffffffffffffffffffffffffffffffffffffffffffffff8203610cfd57610cfc610c91565b5b600182019050919050565b6000819050919050565b610d23610d1e82610533565b610d08565b82525050565b600081905092915050565b6000610d3f826104a3565b610d498185610d29565b9350610d598185602086016104bf565b80840191505092915050565b6000610d718287610d12565b602082019150610d818286610d34565b9150610d8d8285610d12565b602082019150610d9d8284610d12565b6020820191508190509594505050505056fea2646970667358221220ab12192b8c061db86e693c7aa9aa14d3061c1a3992834796cdf159103d71888b64736f6c63430008120033",
			"opcodes": "PUSH1 0x80 PUSH1 0x40 MSTORE CALLVALUE DUP1 ISZERO PUSH2 0x10 JUMPI PUSH1 0x0 DUP1 REVERT JUMPDEST POP CALLER PUSH1 0x2 PUSH1 0x0 PUSH2 0x100 EXP DUP2 SLOAD DUP2 PUSH20 0xFFFFFFFFFFFFFFFFFFFFFFFFFFFFFFFFFFFFFFFF MUL NOT AND SWAP1 DUP4 PUSH20 0xFFFFFFFFFFFFFFFFFFFFFFFFFFFFFFFFFFFFFFFF AND MUL OR SWAP1 SSTORE POP PUSH2 0xDE5 DUP1 PUSH2 0x61 PUSH1 0x0 CODECOPY PUSH1 0x0 RETURN INVALID PUSH1 0x80 PUSH1 0x40 MSTORE CALLVALUE DUP1 ISZERO PUSH2 0x10 JUMPI PUSH1 0x0 DUP1 REVERT JUMPDEST POP PUSH1 0x4 CALLDATASIZE LT PUSH2 0x57 JUMPI PUSH1 0x0 CALLDATALOAD PUSH1 0xE0 SHR DUP1 PUSH4 0xC0DEE70 EQ PUSH2 0x5C JUMPI DUP1 PUSH4 0x6EC4F4BF EQ PUSH2 0x8E JUMPI DUP1 PUSH4 0x8F0869CB EQ PUSH2 0xAC JUMPI DUP1 PUSH4 0xDE20637E EQ PUSH2 0xC8 JUMPI DUP1 PUSH4 0xF851A440 EQ PUSH2 0xF8 JUMPI JUMPDEST PUSH1 0x0 DUP1 REVERT JUMPDEST PUSH2 0x76 PUSH1 0x4 DUP1 CALLDATASIZE SUB DUP2 ADD SWAP1 PUSH2 0x71 SWAP2 SWAP1 PUSH2 0x476 JUMP JUMPDEST PUSH2 0x116 JUMP JUMPDEST PUSH1 0x40 MLOAD PUSH2 0x85 SWAP4 SWAP3 SWAP2 SWAP1 PUSH2 0x54C JUMP JUMPDEST PUSH1 0x40 MLOAD DUP1 SWAP2 SUB SWAP1 RETURN JUMPDEST PUSH2 0x96 PUSH2 0x250 JUMP JUMPDEST PUSH1 0x40 MLOAD PUSH2 0xA3 SWAP2 SWAP1 PUSH2 0x591 JUMP JUMPDEST PUSH1 0x40 MLOAD DUP1 SWAP2 SUB SWAP1 RETURN JUMPDEST PUSH2 0xC6 PUSH1 0x4 DUP1 CALLDATASIZE SUB DUP2 ADD SWAP1 PUSH2 0xC1 SWAP2 SWAP1 PUSH2 0x70D JUMP JUMPDEST PUSH2 0x256 JUMP JUMPDEST STOP JUMPDEST PUSH2 0xE2 PUSH1 0x4 DUP1 CALLDATASIZE SUB DUP2 ADD SWAP1 PUSH2 0xDD SWAP2 SWAP1 PUSH2 0x7AC JUMP JUMPDEST PUSH2 0x3C8 JUMP JUMPDEST PUSH1 0x40 MLOAD PUSH2 0xEF SWAP2 SWAP1 PUSH2 0x83E JUMP JUMPDEST PUSH1 0x40 MLOAD DUP1 SWAP2 SUB SWAP1 RETURN JUMPDEST PUSH2 0x100 PUSH2 0x406 JUMP JUMPDEST PUSH1 0x40 MLOAD PUSH2 0x10D SWAP2 SWAP1 PUSH2 0x89A JUMP JUMPDEST PUSH1 0x40 MLOAD DUP1 SWAP2 SUB SWAP1 RETURN JUMPDEST PUSH1 0x0 PUSH1 0x20 MSTORE DUP1 PUSH1 0x0 MSTORE PUSH1 0x40 PUSH1 0x0 KECCAK256 PUSH1 0x0 SWAP2 POP SWAP1 POP DUP1 PUSH1 0x0 ADD DUP1 SLOAD PUSH2 0x139 SWAP1 PUSH2 0x8E4 JUMP JUMPDEST DUP1 PUSH1 0x1F ADD PUSH1 0x20 DUP1 SWAP2 DIV MUL PUSH1 0x20 ADD PUSH1 0x40 MLOAD SWAP1 DUP2 ADD PUSH1 0x40 MSTORE DUP1 SWAP3 SWAP2 SWAP1 DUP2 DUP2 MSTORE PUSH1 0x20 ADD DUP3 DUP1 SLOAD PUSH2 0x165 SWAP1 PUSH2 0x8E4 JUMP JUMPDEST DUP1 ISZERO PUSH2 0x1B2 JUMPI DUP1 PUSH1 0x1F LT PUSH2 0x187 JUMPI PUSH2 0x100 DUP1 DUP4 SLOAD DIV MUL DUP4 MSTORE SWAP2 PUSH1 0x20 ADD SWAP2 PUSH2 0x1B2 JUMP JUMPDEST DUP3 ADD SWAP2 SWAP1 PUSH1 0x0 MSTORE PUSH1 0x20 PUSH1 0x0 KECCAK256 SWAP1 JUMPDEST DUP2 SLOAD DUP2 MSTORE SWAP1 PUSH1 0x1 ADD SWAP1 PUSH1 0x20 ADD DUP1 DUP4 GT PUSH2 0x195 JUMPI DUP3 SWAP1 SUB PUSH1 0x1F AND DUP3 ADD SWAP2 JUMPDEST POP POP POP POP POP SWAP1 DUP1 PUSH1 0x1 ADD DUP1 SLOAD PUSH2 0x1C7 SWAP1 PUSH2 0x8E4 JUMP JUMPDEST DUP1 PUSH1 0x1F ADD PUSH1 0x20 DUP1 SWAP2 DIV MUL PUSH1 0x20 ADD PUSH1 0x40 MLOAD SWAP1 DUP2 ADD PUSH1 0x40 MSTORE DUP1 SWAP3 SWAP2 SWAP1 DUP2 DUP2 MSTORE PUSH1 0x20 ADD DUP3 DUP1 SLOAD PUSH2 0x1F3 SWAP1 PUSH2 0x8E4 JUMP JUMPDEST DUP1 ISZERO PUSH2 0x240 JUMPI DUP1 PUSH1 0x1F LT PUSH2 0x215 JUMPI PUSH2 0x100 DUP1 DUP4 SLOAD DIV MUL DUP4 MSTORE SWAP2 PUSH1 0x20 ADD SWAP2 PUSH2 0x240 JUMP JUMPDEST DUP3 ADD SWAP2 SWAP1 PUSH1 0x0 MSTORE PUSH1 0x20 PUSH1 0x0 KECCAK256 SWAP1 JUMPDEST DUP2 SLOAD DUP2 MSTORE SWAP1 PUSH1 0x1 ADD SWAP1 PUSH1 0x20 ADD DUP1 DUP4 GT PUSH2 0x223 JUMPI DUP3 SWAP1 SUB PUSH1 0x1F AND DUP3 ADD SWAP2 JUMPDEST POP POP POP POP POP SWAP1 DUP1 PUSH1 0x2 ADD SLOAD SWAP1 POP DUP4 JUMP JUMPDEST PUSH1 0x1 SLOAD DUP2 JUMP JUMPDEST PUSH1 0x2 PUSH1 0x0 SWAP1 SLOAD SWAP1 PUSH2 0x100 EXP SWAP1 DIV PUSH20 0xFFFFFFFFFFFFFFFFFFFFFFFFFFFFFFFFFFFFFFFF AND PUSH20 0xFFFFFFFFFFFFFFFFFFFFFFFFFFFFFFFFFFFFFFFF AND CALLER PUSH20 0xFFFFFFFFFFFFFFFFFFFFFFFFFFFFFFFFFFFFFFFF AND EQ PUSH2 0x2E6 JUMPI PUSH1 0x40 MLOAD PUSH32 0x8C379A000000000000000000000000000000000000000000000000000000000 DUP2 MSTORE PUSH1 0x4 ADD PUSH2 0x2DD SWAP1 PUSH2 0x987 JUMP JUMPDEST PUSH1 0x40 MLOAD DUP1 SWAP2 SUB SWAP1 REVERT JUMPDEST PUSH1 0x0 DUP1 PUSH1 0x0 DUP7 DUP2 MSTORE PUSH1 0x20 ADD SWAP1 DUP2 MSTORE PUSH1 0x20 ADD PUSH1 0x0 KECCAK256 PUSH1 0x2 ADD SLOAD EQ PUSH2 0x33E JUMPI PUSH1 0x40 MLOAD PUSH32 0x8C379A000000000000000000000000000000000000000000000000000000000 DUP2 MSTORE PUSH1 0x4 ADD PUSH2 0x335 SWAP1 PUSH2 0x9F3 JUMP JUMPDEST PUSH1 0x40 MLOAD DUP1 SWAP2 SUB SWAP1 REVERT JUMPDEST PUSH1 0x0 PUSH1 0x40 MLOAD DUP1 PUSH1 0x60 ADD PUSH1 0x40 MSTORE DUP1 DUP6 DUP2 MSTORE PUSH1 0x20 ADD DUP5 DUP2 MSTORE PUSH1 0x20 ADD DUP4 DUP2 MSTORE POP SWAP1 POP DUP1 PUSH1 0x0 DUP1 DUP8 DUP2 MSTORE PUSH1 0x20 ADD SWAP1 DUP2 MSTORE PUSH1 0x20 ADD PUSH1 0x0 KECCAK256 PUSH1 0x0 DUP3 ADD MLOAD DUP2 PUSH1 0x0 ADD SWAP1 DUP2 PUSH2 0x385 SWAP2 SWAP1 PUSH2 0xBBF JUMP JUMPDEST POP PUSH1 0x20 DUP3 ADD MLOAD DUP2 PUSH1 0x1 ADD SWAP1 DUP2 PUSH2 0x39B SWAP2 SWAP1 PUSH2 0xBBF JUMP JUMPDEST POP PUSH1 0x40 DUP3 ADD MLOAD DUP2 PUSH1 0x2 ADD SSTORE SWAP1 POP POP PUSH1 0x1 PUSH1 0x0 DUP2 SLOAD DUP1 SWAP3 SWAP2 SWAP1 PUSH2 0x3BC SWAP1 PUSH2 0xCC0 JUMP JUMPDEST SWAP2 SWAP1 POP SSTORE POP POP POP POP POP POP JUMP JUMPDEST PUSH1 0x0 DUP1 DUP6 DUP6 DUP6 DUP6 PUSH1 0x40 MLOAD PUSH1 0x20 ADD PUSH2 0x3E2 SWAP5 SWAP4 SWAP3 SWAP2 SWAP1 PUSH2 0xD65 JUMP JUMPDEST PUSH1 0x40 MLOAD PUSH1 0x20 DUP2 DUP4 SUB SUB DUP2 MSTORE SWAP1 PUSH1 0x40 MSTORE DUP1 MLOAD SWAP1 PUSH1 0x20 ADD KECCAK256 SWAP1 POP DUP1 SWAP2 POP POP SWAP5 SWAP4 POP POP POP POP JUMP JUMPDEST PUSH1 0x2 PUSH1 0x0 SWAP1 SLOAD SWAP1 PUSH2 0x100 EXP SWAP1 DIV PUSH20 0xFFFFFFFFFFFFFFFFFFFFFFFFFFFFFFFFFFFFFFFF AND DUP2 JUMP JUMPDEST PUSH1 0x0 PUSH1 0x40 MLOAD SWAP1 POP SWAP1 JUMP JUMPDEST PUSH1 0x0 DUP1 REVERT JUMPDEST PUSH1 0x0 DUP1 REVERT JUMPDEST PUSH1 0x0 DUP2 SWAP1 POP SWAP2 SWAP1 POP JUMP JUMPDEST PUSH2 0x453 DUP2 PUSH2 0x440 JUMP JUMPDEST DUP2 EQ PUSH2 0x45E JUMPI PUSH1 0x0 DUP1 REVERT JUMPDEST POP JUMP JUMPDEST PUSH1 0x0 DUP2 CALLDATALOAD SWAP1 POP PUSH2 0x470 DUP2 PUSH2 0x44A JUMP JUMPDEST SWAP3 SWAP2 POP POP JUMP JUMPDEST PUSH1 0x0 PUSH1 0x20 DUP3 DUP5 SUB SLT ISZERO PUSH2 0x48C JUMPI PUSH2 0x48B PUSH2 0x436 JUMP JUMPDEST JUMPDEST PUSH1 0x0 PUSH2 0x49A DUP5 DUP3 DUP6 ADD PUSH2 0x461 JUMP JUMPDEST SWAP2 POP POP SWAP3 SWAP2 POP POP JUMP JUMPDEST PUSH1 0x0 DUP2 MLOAD SWAP1 POP SWAP2 SWAP1 POP JUMP JUMPDEST PUSH1 0x0 DUP3 DUP3 MSTORE PUSH1 0x20 DUP3 ADD SWAP1 POP SWAP3 SWAP2 POP POP JUMP JUMPDEST PUSH1 0x0 JUMPDEST DUP4 DUP2 LT ISZERO PUSH2 0x4DD JUMPI DUP1 DUP3 ADD MLOAD DUP2 DUP5 ADD MSTORE PUSH1 0x20 DUP2 ADD SWAP1 POP PUSH2 0x4C2 JUMP JUMPDEST PUSH1 0x0 DUP5 DUP5 ADD MSTORE POP POP POP POP JUMP JUMPDEST PUSH1 0x0 PUSH1 0x1F NOT PUSH1 0x1F DUP4 ADD AND SWAP1 POP SWAP2 SWAP1 POP JUMP JUMPDEST PUSH1 0x0 PUSH2 0x505 DUP3 PUSH2 0x4A3 JUMP JUMPDEST PUSH2 0x50F DUP2 DUP6 PUSH2 0x4AE JUMP JUMPDEST SWAP4 POP PUSH2 0x51F DUP2 DUP6 PUSH1 0x20 DUP7 ADD PUSH2 0x4BF JUMP JUMPDEST PUSH2 0x528 DUP2 PUSH2 0x4E9 JUMP JUMPDEST DUP5 ADD SWAP2 POP POP SWAP3 SWAP2 POP POP JUMP JUMPDEST PUSH1 0x0 DUP2 SWAP1 POP SWAP2 SWAP1 POP JUMP JUMPDEST PUSH2 0x546 DUP2 PUSH2 0x533 JUMP JUMPDEST DUP3 MSTORE POP POP JUMP JUMPDEST PUSH1 0x0 PUSH1 0x60 DUP3 ADD SWAP1 POP DUP2 DUP2 SUB PUSH1 0x0 DUP4 ADD MSTORE PUSH2 0x566 DUP2 DUP7 PUSH2 0x4FA JUMP JUMPDEST SWAP1 POP DUP2 DUP2 SUB PUSH1 0x20 DUP4 ADD MSTORE PUSH2 0x57A DUP2 DUP6 PUSH2 0x4FA JUMP JUMPDEST SWAP1 POP PUSH2 0x589 PUSH1 0x40 DUP4 ADD DUP5 PUSH2 0x53D JUMP JUMPDEST SWAP5 SWAP4 POP POP POP POP JUMP JUMPDEST PUSH1 0x0 PUSH1 0x20 DUP3 ADD SWAP1 POP PUSH2 0x5A6 PUSH1 0x0 DUP4 ADD DUP5 PUSH2 0x53D JUMP JUMPDEST SWAP3 SWAP2 POP POP JUMP JUMPDEST PUSH1 0x0 DUP1 REVERT JUMPDEST PUSH1 0x0 DUP1 REVERT JUMPDEST PUSH32 0x4E487B7100000000000000000000000000000000000000000000000000000000 PUSH1 0x0 MSTORE PUSH1 0x41 PUSH1 0x4 MSTORE PUSH1 0x24 PUSH1 0x0 REVERT JUMPDEST PUSH2 0x5EE DUP3 PUSH2 0x4E9 JUMP JUMPDEST DUP2 ADD DUP2 DUP2 LT PUSH8 0xFFFFFFFFFFFFFFFF DUP3 GT OR ISZERO PUSH2 0x60D JUMPI PUSH2 0x60C PUSH2 0x5B6 JUMP JUMPDEST JUMPDEST DUP1 PUSH1 0x40 MSTORE POP POP POP JUMP JUMPDEST PUSH1 0x0 PUSH2 0x620 PUSH2 0x42C JUMP JUMPDEST SWAP1 POP PUSH2 0x62C DUP3 DUP3 PUSH2 0x5E5 JUMP JUMPDEST SWAP2 SWAP1 POP JUMP JUMPDEST PUSH1 0x0 PUSH8 0xFFFFFFFFFFFFFFFF DUP3 GT ISZERO PUSH2 0x64C JUMPI PUSH2 0x64B PUSH2 0x5B6 JUMP JUMPDEST JUMPDEST PUSH2 0x655 DUP3 PUSH2 0x4E9 JUMP JUMPDEST SWAP1 POP PUSH1 0x20 DUP2 ADD SWAP1 POP SWAP2 SWAP1 POP JUMP JUMPDEST DUP3 DUP2 DUP4 CALLDATACOPY PUSH1 0x0 DUP4 DUP4 ADD MSTORE POP POP POP JUMP JUMPDEST PUSH1 0x0 PUSH2 0x684 PUSH2 0x67F DUP5 PUSH2 0x631 JUMP JUMPDEST PUSH2 0x616 JUMP JUMPDEST SWAP1 POP DUP3 DUP2 MSTORE PUSH1 0x20 DUP2 ADD DUP5 DUP5 DUP5 ADD GT ISZERO PUSH2 0x6A0 JUMPI PUSH2 0x69F PUSH2 0x5B1 JUMP JUMPDEST JUMPDEST PUSH2 0x6AB DUP5 DUP3 DUP6 PUSH2 0x662 JUMP JUMPDEST POP SWAP4 SWAP3 POP POP POP JUMP JUMPDEST PUSH1 0x0 DUP3 PUSH1 0x1F DUP4 ADD SLT PUSH2 0x6C8 JUMPI PUSH2 0x6C7 PUSH2 0x5AC JUMP JUMPDEST JUMPDEST DUP2 CALLDATALOAD PUSH2 0x6D8 DUP5 DUP3 PUSH1 0x20 DUP7 ADD PUSH2 0x671 JUMP JUMPDEST SWAP2 POP POP SWAP3 SWAP2 POP POP JUMP JUMPDEST PUSH2 0x6EA DUP2 PUSH2 0x533 JUMP JUMPDEST DUP2 EQ PUSH2 0x6F5 JUMPI PUSH1 0x0 DUP1 REVERT JUMPDEST POP JUMP JUMPDEST PUSH1 0x0 DUP2 CALLDATALOAD SWAP1 POP PUSH2 0x707 DUP2 PUSH2 0x6E1 JUMP JUMPDEST SWAP3 SWAP2 POP POP JUMP JUMPDEST PUSH1 0x0 DUP1 PUSH1 0x0 DUP1 PUSH1 0x80 DUP6 DUP8 SUB SLT ISZERO PUSH2 0x727 JUMPI PUSH2 0x726 PUSH2 0x436 JUMP JUMPDEST JUMPDEST PUSH1 0x0 PUSH2 0x735 DUP8 DUP3 DUP9 ADD PUSH2 0x461 JUMP JUMPDEST SWAP5 POP POP PUSH1 0x20 DUP6 ADD CALLDATALOAD PUSH8 0xFFFFFFFFFFFFFFFF DUP2 GT ISZERO PUSH2 0x756 JUMPI PUSH2 0x755 PUSH2 0x43B JUMP JUMPDEST JUMPDEST PUSH2 0x762 DUP8 DUP3 DUP9 ADD PUSH2 0x6B3 JUMP JUMPDEST SWAP4 POP POP PUSH1 0x40 DUP6 ADD CALLDATALOAD PUSH8 0xFFFFFFFFFFFFFFFF DUP2 GT ISZERO PUSH2 0x783 JUMPI PUSH2 0x782 PUSH2 0x43B JUMP JUMPDEST JUMPDEST PUSH2 0x78F DUP8 DUP3 DUP9 ADD PUSH2 0x6B3 JUMP JUMPDEST SWAP3 POP POP PUSH1 0x60 PUSH2 0x7A0 DUP8 DUP3 DUP9 ADD PUSH2 0x6F8 JUMP JUMPDEST SWAP2 POP POP SWAP3 SWAP6 SWAP2 SWAP5 POP SWAP3 POP JUMP JUMPDEST PUSH1 0x0 DUP1 PUSH1 0x0 DUP1 PUSH1 0x80 DUP6 DUP8 SUB SLT ISZERO PUSH2 0x7C6 JUMPI PUSH2 0x7C5 PUSH2 0x436 JUMP JUMPDEST JUMPDEST PUSH1 0x0 PUSH2 0x7D4 DUP8 DUP3 DUP9 ADD PUSH2 0x6F8 JUMP JUMPDEST SWAP5 POP POP PUSH1 0x20 DUP6 ADD CALLDATALOAD PUSH8 0xFFFFFFFFFFFFFFFF DUP2 GT ISZERO PUSH2 0x7F5 JUMPI PUSH2 0x7F4 PUSH2 0x43B JUMP JUMPDEST JUMPDEST PUSH2 0x801 DUP8 DUP3 DUP9 ADD PUSH2 0x6B3 JUMP JUMPDEST SWAP4 POP POP PUSH1 0x40 PUSH2 0x812 DUP8 DUP3 DUP9 ADD PUSH2 0x6F8 JUMP JUMPDEST SWAP3 POP POP PUSH1 0x60 PUSH2 0x823 DUP8 DUP3 DUP9 ADD PUSH2 0x6F8 JUMP JUMPDEST SWAP2 POP POP SWAP3 SWAP6 SWAP2 SWAP5 POP SWAP3 POP JUMP JUMPDEST PUSH2 0x838 DUP2 PUSH2 0x440 JUMP JUMPDEST DUP3 MSTORE POP POP JUMP JUMPDEST PUSH1 0x0 PUSH1 0x20 DUP3 ADD SWAP1 POP PUSH2 0x853 PUSH1 0x0 DUP4 ADD DUP5 PUSH2 0x82F JUMP JUMPDEST SWAP3 SWAP2 POP POP JUMP JUMPDEST PUSH1 0x0 PUSH20 0xFFFFFFFFFFFFFFFFFFFFFFFFFFFFFFFFFFFFFFFF DUP3 AND SWAP1 POP SWAP2 SWAP1 POP JUMP JUMPDEST PUSH1 0x0 PUSH2 0x884 DUP3 PUSH2 0x859 JUMP JUMPDEST SWAP1 POP SWAP2 SWAP1 POP JUMP JUMPDEST PUSH2 0x894 DUP2 PUSH2 0x879 JUMP JUMPDEST DUP3 MSTORE POP POP JUMP JUMPDEST PUSH1 0x0 PUSH1 0x20 DUP3 ADD SWAP1 POP PUSH2 0x8AF PUSH1 0x0 DUP4 ADD DUP5 PUSH2 0x88B JUMP JUMPDEST SWAP3 SWAP2 POP POP JUMP JUMPDEST PUSH32 0x4E487B7100000000000000000000000000000000000000000000000000000000 PUSH1 0x0 MSTORE PUSH1 0x22 PUSH1 0x4 MSTORE PUSH1 0x24 PUSH1 0x0 REVERT JUMPDEST PUSH1 0x0 PUSH1 0x2 DUP3 DIV SWAP1 POP PUSH1 0x1 DUP3 AND DUP1 PUSH2 0x8FC JUMPI PUSH1 0x7F DUP3 AND SWAP2 POP JUMPDEST PUSH1 0x20 DUP3 LT DUP2 SUB PUSH2 0x90F JUMPI PUSH2 0x90E PUSH2 0x8B5 JUMP JUMPDEST JUMPDEST POP SWAP2 SWAP1 POP JUMP JUMPDEST PUSH32 0x48616E79612061646D696E2079616E67206461706174206D656D616E6767696C PUSH1 0x0 DUP3 ADD MSTORE PUSH32 0x2066756E67736920696E69000000000000000000000000000000000000000000 PUSH1 0x20 DUP3 ADD MSTORE POP JUMP JUMPDEST PUSH1 0x0 PUSH2 0x971 PUSH1 0x2B DUP4 PUSH2 0x4AE JUMP JUMPDEST SWAP2 POP PUSH2 0x97C DUP3 PUSH2 0x915 JUMP JUMPDEST PUSH1 0x40 DUP3 ADD SWAP1 POP SWAP2 SWAP1 POP JUMP JUMPDEST PUSH1 0x0 PUSH1 0x20 DUP3 ADD SWAP1 POP DUP2 DUP2 SUB PUSH1 0x0 DUP4 ADD MSTORE PUSH2 0x9A0 DUP2 PUSH2 0x964 JUMP JUMPDEST SWAP1 POP SWAP2 SWAP1 POP JUMP JUMPDEST PUSH32 0x42756B752064656E67616E204953424E20696E69207375646168206164610000 PUSH1 0x0 DUP3 ADD MSTORE POP JUMP JUMPDEST PUSH1 0x0 PUSH2 0x9DD PUSH1 0x1E DUP4 PUSH2 0x4AE JUMP JUMPDEST SWAP2 POP PUSH2 0x9E8 DUP3 PUSH2 0x9A7 JUMP JUMPDEST PUSH1 0x20 DUP3 ADD SWAP1 POP SWAP2 SWAP1 POP JUMP JUMPDEST PUSH1 0x0 PUSH1 0x20 DUP3 ADD SWAP1 POP DUP2 DUP2 SUB PUSH1 0x0 DUP4 ADD MSTORE PUSH2 0xA0C DUP2 PUSH2 0x9D0 JUMP JUMPDEST SWAP1 POP SWAP2 SWAP1 POP JUMP JUMPDEST PUSH1 0x0 DUP2 SWAP1 POP DUP2 PUSH1 0x0 MSTORE PUSH1 0x20 PUSH1 0x0 KECCAK256 SWAP1 POP SWAP2 SWAP1 POP JUMP JUMPDEST PUSH1 0x0 PUSH1 0x20 PUSH1 0x1F DUP4 ADD DIV SWAP1 POP SWAP2 SWAP1 POP JUMP JUMPDEST PUSH1 0x0 DUP3 DUP3 SHL SWAP1 POP SWAP3 SWAP2 POP POP JUMP JUMPDEST PUSH1 0x0 PUSH1 0x8 DUP4 MUL PUSH2 0xA75 PUSH32 0xFFFFFFFFFFFFFFFFFFFFFFFFFFFFFFFFFFFFFFFFFFFFFFFFFFFFFFFFFFFFFFFF DUP3 PUSH2 0xA38 JUMP JUMPDEST PUSH2 0xA7F DUP7 DUP4 PUSH2 0xA38 JUMP JUMPDEST SWAP6 POP DUP1 NOT DUP5 AND SWAP4 POP DUP1 DUP7 AND DUP5 OR SWAP3 POP POP POP SWAP4 SWAP3 POP POP POP JUMP JUMPDEST PUSH1 0x0 DUP2 SWAP1 POP SWAP2 SWAP1 POP JUMP JUMPDEST PUSH1 0x0 PUSH2 0xABC PUSH2 0xAB7 PUSH2 0xAB2 DUP5 PUSH2 0x533 JUMP JUMPDEST PUSH2 0xA97 JUMP JUMPDEST PUSH2 0x533 JUMP JUMPDEST SWAP1 POP SWAP2 SWAP1 POP JUMP JUMPDEST PUSH1 0x0 DUP2 SWAP1 POP SWAP2 SWAP1 POP JUMP JUMPDEST PUSH2 0xAD6 DUP4 PUSH2 0xAA1 JUMP JUMPDEST PUSH2 0xAEA PUSH2 0xAE2 DUP3 PUSH2 0xAC3 JUMP JUMPDEST DUP5 DUP5 SLOAD PUSH2 0xA45 JUMP JUMPDEST DUP3 SSTORE POP POP POP POP JUMP JUMPDEST PUSH1 0x0 SWAP1 JUMP JUMPDEST PUSH2 0xAFF PUSH2 0xAF2 JUMP JUMPDEST PUSH2 0xB0A DUP2 DUP5 DUP5 PUSH2 0xACD JUMP JUMPDEST POP POP POP JUMP JUMPDEST JUMPDEST DUP2 DUP2 LT ISZERO PUSH2 0xB2E JUMPI PUSH2 0xB23 PUSH1 0x0 DUP3 PUSH2 0xAF7 JUMP JUMPDEST PUSH1 0x1 DUP2 ADD SWAP1 POP PUSH2 0xB10 JUMP JUMPDEST POP POP JUMP JUMPDEST PUSH1 0x1F DUP3 GT ISZERO PUSH2 0xB73 JUMPI PUSH2 0xB44 DUP2 PUSH2 0xA13 JUMP JUMPDEST PUSH2 0xB4D DUP5 PUSH2 0xA28 JUMP JUMPDEST DUP2 ADD PUSH1 0x20 DUP6 LT ISZERO PUSH2 0xB5C JUMPI DUP2 SWAP1 POP JUMPDEST PUSH2 0xB70 PUSH2 0xB68 DUP6 PUSH2 0xA28 JUMP JUMPDEST DUP4 ADD DUP3 PUSH2 0xB0F JUMP JUMPDEST POP POP JUMPDEST POP POP POP JUMP JUMPDEST PUSH1 0x0 DUP3 DUP3 SHR SWAP1 POP SWAP3 SWAP2 POP POP JUMP JUMPDEST PUSH1 0x0 PUSH2 0xB96 PUSH1 0x0 NOT DUP5 PUSH1 0x8 MUL PUSH2 0xB78 JUMP JUMPDEST NOT DUP1 DUP4 AND SWAP2 POP POP SWAP3 SWAP2 POP POP JUMP JUMPDEST PUSH1 0x0 PUSH2 0xBAF DUP4 DUP4 PUSH2 0xB85 JUMP JUMPDEST SWAP2 POP DUP3 PUSH1 0x2 MUL DUP3 OR SWAP1 POP SWAP3 SWAP2 POP POP JUMP JUMPDEST PUSH2 0xBC8 DUP3 PUSH2 0x4A3 JUMP JUMPDEST PUSH8 0xFFFFFFFFFFFFFFFF DUP2 GT ISZERO PUSH2 0xBE1 JUMPI PUSH2 0xBE0 PUSH2 0x5B6 JUMP JUMPDEST JUMPDEST PUSH2 0xBEB DUP3 SLOAD PUSH2 0x8E4 JUMP JUMPDEST PUSH2 0xBF6 DUP3 DUP3 DUP6 PUSH2 0xB32 JUMP JUMPDEST PUSH1 0x0 PUSH1 0x20 SWAP1 POP PUSH1 0x1F DUP4 GT PUSH1 0x1 DUP2 EQ PUSH2 0xC29 JUMPI PUSH1 0x0 DUP5 ISZERO PUSH2 0xC17 JUMPI DUP3 DUP8 ADD MLOAD SWAP1 POP JUMPDEST PUSH2 0xC21 DUP6 DUP3 PUSH2 0xBA3 JUMP JUMPDEST DUP7 SSTORE POP PUSH2 0xC89 JUMP JUMPDEST PUSH1 0x1F NOT DUP5 AND PUSH2 0xC37 DUP7 PUSH2 0xA13 JUMP JUMPDEST PUSH1 0x0 JUMPDEST DUP3 DUP2 LT ISZERO PUSH2 0xC5F JUMPI DUP5 DUP10 ADD MLOAD DUP3 SSTORE PUSH1 0x1 DUP3 ADD SWAP2 POP PUSH1 0x20 DUP6 ADD SWAP5 POP PUSH1 0x20 DUP2 ADD SWAP1 POP PUSH2 0xC3A JUMP JUMPDEST DUP7 DUP4 LT ISZERO PUSH2 0xC7C JUMPI DUP5 DUP10 ADD MLOAD PUSH2 0xC78 PUSH1 0x1F DUP10 AND DUP3 PUSH2 0xB85 JUMP JUMPDEST DUP4 SSTORE POP JUMPDEST PUSH1 0x1 PUSH1 0x2 DUP9 MUL ADD DUP9 SSTORE POP POP POP JUMPDEST POP POP POP POP POP POP JUMP JUMPDEST PUSH32 0x4E487B7100000000000000000000000000000000000000000000000000000000 PUSH1 0x0 MSTORE PUSH1 0x11 PUSH1 0x4 MSTORE PUSH1 0x24 PUSH1 0x0 REVERT JUMPDEST PUSH1 0x0 PUSH2 0xCCB DUP3 PUSH2 0x533 JUMP JUMPDEST SWAP2 POP PUSH32 0xFFFFFFFFFFFFFFFFFFFFFFFFFFFFFFFFFFFFFFFFFFFFFFFFFFFFFFFFFFFFFFFF DUP3 SUB PUSH2 0xCFD JUMPI PUSH2 0xCFC PUSH2 0xC91 JUMP JUMPDEST JUMPDEST PUSH1 0x1 DUP3 ADD SWAP1 POP SWAP2 SWAP1 POP JUMP JUMPDEST PUSH1 0x0 DUP2 SWAP1 POP SWAP2 SWAP1 POP JUMP JUMPDEST PUSH2 0xD23 PUSH2 0xD1E DUP3 PUSH2 0x533 JUMP JUMPDEST PUSH2 0xD08 JUMP JUMPDEST DUP3 MSTORE POP POP JUMP JUMPDEST PUSH1 0x0 DUP2 SWAP1 POP SWAP3 SWAP2 POP POP JUMP JUMPDEST PUSH1 0x0 PUSH2 0xD3F DUP3 PUSH2 0x4A3 JUMP JUMPDEST PUSH2 0xD49 DUP2 DUP6 PUSH2 0xD29 JUMP JUMPDEST SWAP4 POP PUSH2 0xD59 DUP2 DUP6 PUSH1 0x20 DUP7 ADD PUSH2 0x4BF JUMP JUMPDEST DUP1 DUP5 ADD SWAP2 POP POP SWAP3 SWAP2 POP POP JUMP JUMPDEST PUSH1 0x0 PUSH2 0xD71 DUP3 DUP8 PUSH2 0xD12 JUMP JUMPDEST PUSH1 0x20 DUP3 ADD SWAP2 POP PUSH2 0xD81 DUP3 DUP7 PUSH2 0xD34 JUMP JUMPDEST SWAP2 POP PUSH2 0xD8D DUP3 DUP6 PUSH2 0xD12 JUMP JUMPDEST PUSH1 0x20 DUP3 ADD SWAP2 POP PUSH2 0xD9D DUP3 DUP5 PUSH2 0xD12 JUMP JUMPDEST PUSH1 0x20 DUP3 ADD SWAP2 POP DUP2 SWAP1 POP SWAP6 SWAP5 POP POP POP POP POP JUMP INVALID LOG2 PUSH5 0x6970667358 0x22 SLT KECCAK256 0xAB SLT NOT 0x2B DUP13 MOD SAR 0xB8 PUSH15 0x693C7AA9AA14D3061C1A3992834796 0xCD CALL MSIZE LT RETURNDATASIZE PUSH18 0x888B64736F6C634300081200330000000000 "
		},
		"gasEstimates": {
			"creation": {
				"codeDepositCost": "711400",
				"executionCost": "25013",
				"totalCost": "736413"
			},
			"external": {
				"addBook(bytes32,string,string,uint256)": "infinite",
				"admin()": "2580",
				"books(bytes32)": "infinite",
				"generateISBN(uint256,string,uint256,uint256)": "infinite",
				"totalBooks()": "2429"
			}
		},
		"methodIdentifiers": {
			"addBook(bytes32,string,string,uint256)": "8f0869cb",
			"admin()": "f851a440",
			"books(bytes32)": "0c0dee70",
			"generateISBN(uint256,string,uint256,uint256)": "de20637e",
			"totalBooks()": "6ec4f4bf"
		}
	},
	"abi": [
		{
			"inputs": [],
			"stateMutability": "nonpayable",
			"type": "constructor"
		},
		{
			"inputs": [
				{
					"internalType": "bytes32",
					"name": "isbn",
					"type": "bytes32"
				},
				{
					"internalType": "string",
					"name": "title",
					"type": "string"
				},
				{
					"internalType": "string",
					"name": "author",
					"type": "string"
				},
				{
					"internalType": "uint256",
					"name": "year",
					"type": "uint256"
				}
			],
			"name": "addBook",
			"outputs": [],
			"stateMutability": "nonpayable",
			"type": "function"
		},
		{
			"inputs": [],
			"name": "admin",
			"outputs": [
				{
					"internalType": "address",
					"name": "",
					"type": "address"
				}
			],
			"stateMutability": "view",
			"type": "function"
		},
		{
			"inputs": [
				{
					"internalType": "bytes32",
					"name": "",
					"type": "bytes32"
				}
			],
			"name": "books",
			"outputs": [
				{
					"internalType": "string",
					"name": "title",
					"type": "string"
				},
				{
					"internalType": "string",
					"name": "author",
					"type": "string"
				},
				{
					"internalType": "uint256",
					"name": "year",
					"type": "uint256"
				}
			],
			"stateMutability": "view",
			"type": "function"
		},
		{
			"inputs": [
				{
					"internalType": "uint256",
					"name": "group",
					"type": "uint256"
				},
				{
					"internalType": "string",
					"name": "publisher",
					"type": "string"
				},
				{
					"internalType": "uint256",
					"name": "titleCode",
					"type": "uint256"
				},
				{
					"internalType": "uint256",
					"name": "bookNumber",
					"type": "uint256"
				}
			],
			"name": "generateISBN",
			"outputs": [
				{
					"internalType": "bytes32",
					"name": "",
					"type": "bytes32"
				}
			],
			"stateMutability": "pure",
			"type": "function"
		},
		{
			"inputs": [],
			"name": "totalBooks",
			"outputs": [
				{
					"internalType": "uint256",
					"name": "",
					"type": "uint256"
				}
			],
			"stateMutability": "view",
			"type": "function"
		}
	]
}